:020000040800F2
:100000000008002089010008BB1300081111000836
:10001000B91300088F020008651D000800000000E9
:10002000000000000000000000000000DD190008D2
:100030009102000800000000BD1300080F1A00081C
:10004000A3010008A3010008A3010008A301000800
:10005000A3010008A3010008A3010008A3010008F0
:10006000A3010008A3010008A3010008A3010008E0
:10007000A3010008A3010008A3010008A3010008D0
:10008000A3010008A3010008A3010008A3010008C0
:10009000A3010008A3010008A3010008A3010008B0
:1000A000A3010008A3010008A3010008A3010008A0
:1000B000A3010008A3010008A3010008A301000890
:1000C000A3010008A3010008A3010008A301000880
:1000D000A3010008A3010008A3010008A301000870
:1000E000A3010008A3010008A301000800F002F822
:1000F00000F03AF80AA090E8000C82448344AAF188
:100100000107DA4501D100F02FF8AFF2090EBAE885
:100110000F0013F0010F18BFFB1A43F0010318473B
:100120007822000098220000103A24BF78C878C1D5
:10013000FAD8520724BF30C830C144BF04680C60ED
:10014000704700000023002400250026103A28BF35
:1001500078C1FBD8520728BF30C148BF0B60704739
:100160001FB51FBD10B510BD00F058F81146FFF7C0
:10017000F7FF01F015FE00F076F803B4FFF7F2FF89
:1001800003BC00F07DF8000009488047094800479B
:10019000FEE7FEE7FEE7FEE7FEE7FEE7FEE7FEE737
:1001A000FEE7FEE704480549054A064B7047000094
:1001B000711A0008ED00000800020020000800206D
:1001C00000040020000400204FF0000200B5134698
:1001D00094469646203922BFA0E80C50A0E80C5067
:1001E000B1F12001BFF4F7AF090728BFA0E80C5018
:1001F00048BF0CC05DF804EB890028BF40F8042B11
:1002000008BF704748BF20F8022B11F0804F18BF7D
:1002100000F8012B7047704770477047754600F033
:100220002BF8AE4605006946534620F00700854688
:1002300018B020B5FFF7B6FFBDE820404FF000062C
:100240004FF000074FF000084FF0000B21F00701BE
:10025000AC46ACE8C009ACE8C009ACE8C009ACE801
:10026000C0098D46704710B50446AFF300802046A4
:10027000BDE81040FFF781BF00487047A001002093
:1002800001491820ABBEFEE7260002007047FEE7DA
:100290007047000070B5044600F008F90546601C80
:1002A00002D004480078044400F000F9401BA0424A
:1002B000FAD370BD300000202DE9F84FDFF8B89177
:1002C000002409F1040A0AF1040B23460F270BF15D
:1002D000040EC9E00125A5402A40AA427DD1674EFF
:1002E000D1F804C0ACEB0608B44532D014DCBCF144
:1002F000030F3AD009DCBCF1000F2AD0BCF1010F8A
:100300001CD0BCF1020F31D11DE0BCF1110F17D090
:10031000BCF1120F2AD119E0B8F5881F19D006DCFC
:10032000B8F5803F15D0B8F5801F1FD111E0B8F5A2
:10033000001F0ED0B8F5041F18D10AE0CB6815E0F5
:10034000CB681B1D12E0CB6808330FE0CB680C3381
:100350000CE08B682BB1012B4FF0080303D04561F3
:1003600004E0042302E0056100E00023FF2A01D835
:10037000064601E000F104064FEA840501D9A5F123
:100380002005D6F8008007FA05FC28EA0C0803FAD5
:1003900005F548EA0508C6F800804D68ED0062D50D
:1003A000374DAE6946F00106AE61AD6924F0030633
:1003B00005F001050095334D06EB050CDCF80850FF
:1003C000A607360F07FA06F825EA0805DFF8B88011
:1003D000404503D14FF0000817E044E0DFF8AC805F
:1003E000404502D14FF001080FE0DFF8A4804045FE
:1003F00002D14FF0020808E0DFF89880404502D1B2
:100400004FF0030801E04FF0040808FA06F848EA44
:100410000508CCF808804D68D9F80060ED034D461A
:1004200001D5164300E096432E604D68DAF800606F
:10043000AD03554601D5164300E096432E604D6846
:10044000DBF80060ED025D4601D5164300E09643FF
:100450002E604D68DEF80060AD02754601D516438A
:1004600000E096432E60641C0D682A46E5407FF448
:1004700031AFBDE8F88F000000040140000011100A
:10048000001002400000014000080140000C014043
:1004900000100140001401408068084000D0012095
:1004A00070470AB1016170470904FBE701488068A1
:1004B0007047000030000020024881680278114433
:1004C0008160704730000020074810B5016841F096
:1004D00010010160032000F067F8002000F006F82A
:1004E00000F024F8002010BD0020024070B50D4D32
:1004F00004464FF47A712878B1FBF0F00A49096894
:10050000B1FBF0F000F0DEFA48B9102C07D200225F
:100510002146501E00F028F800206C6070BD0120BC
:1005200070BD0000300000203C0000200C4808B5E1
:10053000816941F001018161816901F0010100914E
:10054000C16941F08051C161C06900F080500090E4
:100550000448416821F0E06141F00071416008BD4C
:100560000010024000000140F0B40E4B1B680C4626
:10057000C3F30223C3F10705042D00D90425191D77
:10058000072901D2002300E0DB1E012606FA05F14F
:10059000491E214099409E40761E16403143F0BCD2
:1005A00001F0E1BB0CED00E0064900F0070208682D
:1005B0004FF6FF03184040EA0220034A1043086048
:1005C000704700000CED00E00000FA052DE9F0474F
:1005D0000F46050061D0434E306800F00700B84276
:1005E00009D2306820F0070038433060306800F0EE
:1005F0000700B84251D128683B4C810712D540070B
:1006000003D5606840F4E06060602878000703D597
:10061000606840F4605060606068A96820F0F00095
:10062000084360602878C00728D06868012810D087
:100630002168022810D0890700292EDA616821F08C
:10064000030101436160FFF731FF804641F28839C1
:100650000DE021688903EFE78901EDE7FFF726FF49
:10066000A0EB0801494502D90320BDE8F087606886
:10067000696800F00C00B0EB810FEFD1306800F03A
:100680000700B8420BD9306820F0070038433060CB
:10069000306800F00700B84201D00120E5E7287873
:1006A000400705D56068E96820F4E06008436060B1
:1006B0002878000706D56068296920F4605040EA70
:1006C000C100606000F038F86168084AC1F30311A6
:1006D000515CC8400649086006480068FFF706FFFD
:1006E0000020C2E700200240001002407E230008E4
:1006F0003C00002034000020044805490068496897
:10070000044AC1F30221515CC84070473C000020FC
:10071000001002408E23000804480549006849681B
:10072000044AC1F3C221515CC84070473C0000201C
:10073000001002408E23000812A185B00FC98DE879
:100740000F0014A0144A006804905168134801F087
:100750000C03042B10D0082B0ED1C1F38343C90323
:100760001DF803000AD5516804AAC1F34041515C49
:100770000A4A5043B0FBF1F005B0704708494843BE
:10078000FAE7000002030405060708090A0B0C0D2E
:100790000E0F1010010200000010024000127A003B
:1007A00000093D002DE9F84F040070D02078C04DBD
:1007B000C00749D06868C0F38100012807D0686885
:1007C000C0F38100022809D16868C00306D52868F3
:1007D000800339D560680028E7D035E06068B0F55F
:1007E000803F0BD010B1B0F5A02F11D0286820F4B5
:1007F00080302860286820F4802002E0286840F4D7
:1008000080302860606890B1FFF750FE06460AE02D
:10081000286840F480202860F0E700BFFFF746FE1C
:10082000801B642873D828688003F7D50CE0FFF795
:100830003DFE064605E000BFFFF738FE801B64283A
:10084000F0D828688003F7D420789A4E80074FF0BC
:1008500001094FF0000839D5686810F00C0F07D077
:100860006868C0F38100022809D16868C00306D413
:100870002868800714D52069012808D110E0206974
:10088000B0B1C6F80090FFF711FE074605E00AE197
:10089000FFF70CFEC01B0228C4D828688007F7D5D4
:1008A0002868616920F0F80040EAC10028600DE086
:1008B000C6F80080FFF7FAFD074604E0FFF7F6FDF3
:1008C000C01B022823D828688007F7D420780007A7
:1008D0002CD57948A169D9B1C0F80090FFF7E6FDA1
:1008E000074604E0FFF7E2FDC01B02280FD8686A44
:1008F0008007F7D571484FF4FA510068B0FBF1F06A
:10090000009000BF0098411E0091FAD20EE080E0F6
:10091000C0F80080FFF7CAFD074604E0FFF7C6FDF8
:10092000C01B022875D8686A8007F7D42078400772
:1009300060D5E8690027C00008D4E86940F080501D
:10094000E861E869012700F0805000905C48016888
:10095000C90513D40168834641F480710160FFF733
:10096000A5FD824606E000BFFFF7A0FDA0EB0A0050
:1009700064284ED8DBF80000C005F5D5E0680128F2
:100980000AD008B1052813D0286A20F00100286297
:10099000286A20F0040002E0286A40F00100286282
:1009A000E06841F2883B98B1FFF780FD82460BE09A
:1009B000286A40F004002862EEE700BFFFF776FDEA
:1009C000A0EB0A0159455AD8286A8007F6D50CE0F1
:1009D000FFF76CFD824605E0FFF768FDA0EB0A011A
:1009E00059454CD8286A8007F6D41FB1E86920F031
:1009F0008050E861E06988B36968C1F38101022928
:100A000044D00228C6F8608004D0FFF74FFD0446AA
:100A100038E034E0FFF74AFD074604E0FFF746FD03
:100A2000C01B02282BD828688001F7D4206AB0F5B3
:100A3000803F05D16868A16820F4003008436860F1
:100A4000D4E908010843696821F474110843686017
:100A5000C6F86090FFF72AFD044606E025E000BFD7
:100A6000FFF724FD001B022809D828688001F7D56C
:100A70001BE000BFFFF71AFD001B022802D903206C
:100A8000BDE8F88F28688001F4D40EE00128F7D083
:100A90006868226A00F48031914204D1616A00F4EE
:100AA0007010884201D00120EAE70020E8E700004A
:100AB0000010024000004242800442423C000020FC
:100AC0000070004010B5401EB0F1807F01D30120BE
:100AD00010BD4FF0E02460610F21601701F043F971
:100AE0000020A06107202061002010BD70B590F8A3
:100AF0003C20012A26D0012480F83C40022280F8C4
:100B00003D2003685A689D6822F070060A683243E7
:100B10005A600D4B02689A4208D0B2F1804F05D05E
:100B20000A4B9A4202D00A4B9A4204D1496825F0F6
:100B300080031943916080F83D40002180F83C100B
:100B4000084670BD022070BD002C0140000400402A
:100B50000008004010B5040003D094F83D0010B127
:100B600007E0012010BD002084F83C00204600F082
:100B70001FF8022084F83D00211D206800F07AFF54
:100B8000012084F8460084F83E0084F83F0084F891
:100B9000400084F8410084F8420084F8430084F85F
:100BA000440084F8450084F83D00002010BD00009A
:100BB00008B5124A01681248914207D1816941F48F
:100BC00000618161806900F4006009E00D4A914292
:100BD00008D1C16941F00201C161C06900F00200A1
:100BE000009008BD084A9142FBD1C16941F004015F
:100BF000C161C06900F00400F2E70000002C014070
:100C000000100240000400400008004090F83D1031
:100C1000012901D001207047022180F83D100068B1
:100C20000B49884208D0B0F1804F05D0094988426D
:100C300002D00949884204D1816801F007010629E0
:100C400003D0016841F001010160002070470000FD
:100C5000002C0140000400400008004070B504462C
:100C600090F83C00012817D0012584F83C50022060
:100C700084F83D002068826822F0770222F47F42E7
:100C800082600868502830D00DDC20284DD005DC6B
:100C900098B310283BD148E0022070BD302844D0E2
:100CA000402834D139E0602828D0702806D0B0F52B
:100CB000805F2CD0B0F5005F29D10AE0CB68D1E984
:100CC0000121206800F019FF2068816841F0770158
:100CD00009E0CB68D1E90121206800F00EFF20680F
:100CE000816841F48041816011E0CA6849682068E8
:100CF00000F0B8FF5021206807E016E0CA68496894
:100D0000206800F0C0FF6021206800F000FF84F838
:100D10003D50002084F83C0070BDCA6849682068D6
:100D200000F0A0FF40212068EFE72268014610464E
:100D3000EBE7000010B586B000210091019102910F
:100D400003911A4C03681A4902221A48A34219D186
:100D50008B6943F008038B618969039201F00801F4
:100D600004911021CDE900126946FFF7A5FA124857
:100D7000416821F4406141F0E06141F4006141606B
:100D800006B010BD0D4CA342FAD18B6943F00803A5
:100D90008B618969039201F0080104914021CDE93A
:100DA00000126946FFF788FAEAE7000000040040F5
:100DB00000100240000C014000000140000800400B
:100DC00070B5044690F83C000D4601280AD0012079
:100DD00084F83C0042B1042A18D0082A2AD00C2AF0
:100DE0004DD139E0022070BD206800F099FE2068E6
:100DF000816941F0080181612068816921F0040165
:100E00008161206881692A69114311E0206800F03E
:100E1000AFFE2068816941F40061816120688169C9
:100E200021F480618161206881692A6941EA022197
:100E3000816124E0206800F0C7FE2068C16941F0AC
:100E40000801C1612068C16921F00401C161206805
:100E5000C1692A69114311E0206800F0E1FE2068B1
:100E6000C16941F40061C1612068C16921F48061F8
:100E7000C1612068C1692A6941EA0221C16100207B
:100E800084F83C0070BD10B5040003D094F83D0018
:100E900010B107E0012010BD002084F83C0020467E
:100EA00000F01EF8022084F83D00211D206800F0AB
:100EB000E1FD012084F8460084F83E0084F83F00FC
:100EC00084F8400084F8410084F8420084F843002C
:100ED00084F8440084F8450084F83D00002010BDEB
:100EE0007047000010B50446022249B104290ED013
:100EF000082913D094F84100012816D0012010BD14
:100F000094F83E000128F9D184F83E200FE094F8CF
:100F10003F000128F2D184F83F2008E094F8400017
:100F20000128EBD184F8402001E084F8412001221F
:100F3000206800F0D5FD0F492068884203D1426C3B
:100F400042F4004242642068884208D0B0F1804FE9
:100F500005D00949884202D00849884204D18168F5
:100F600001F00701062903D0016841F00101016089
:100F7000002010BD002C014000040040000800408B
:100F800030B504460D460068002200F0A9FD174B5D
:100F900041F2111120688A10984209D1036A0B426C
:100FA00006D1036A134203D1436C23F40043436424
:100FB0002068036A0B4206D1016A114203D101681D
:100FC00021F00101016001203DB1042D08D0082D60
:100FD00009D084F84100002030BD84F83E00FAE7D3
:100FE00084F83F00F7E784F84000F4E7002C014064
:100FF00070B5040004D094F83D00002510B106E05F
:10100000012070BD84F83C50204600F023F82420D5
:1010100084F83D002068C16821F40051C160204679
:1010200000F044FE2068016921F4904101612068CC
:10103000416921F02A0141612068C16841F40051F1
:10104000C1602564202084F83D0084F83E00002023
:1010500070BD000070B586B0002400940194029425
:10106000039403682648254E022103220515B34246
:101070001ED1836943F480438361836903F4804311
:101080000493836943F00403836180691D4E00F07B
:10109000040004900802CDE900010392694630463D
:1010A000FFF70AF9CDE9005469463046029420E082
:1010B000154EB3421FD1C36943F48023C361C36992
:1010C00003F480230493836943F0080383618069F8
:1010D000CDE9005100F00800CDE903200B4D694631
:1010E0002846FFF7E9F8E814CDE9000469462846E8
:1010F0000294FFF7E1F806B070BD0000003801402F
:10110000001002400008014000480040000C01406F
:10111000FEE700002DE9F04385B000243B48009431
:10112000019402940394816941F010018161816905
:1011300001F010010491816941F020018161816910
:1011400001F020010491816941F00401816181690C
:1011500001F004010491816941F008018161806915
:101160002B4F00F008004FF4C045049000222946A0
:101170003846FFF796F9DFF89C90002241F2FF0114
:101180004846FFF78EF9DFF8908000224FF2010108
:101190004046FFF786F90095022601250396CDE922
:1011A000015469463846FFF787F8FF200327CDE949
:1011B0000005CDE9024769464846FFF77DF80397E9
:1011C0000095CDE9015469464046FFF775F84FF4A4
:1011D0007040CDE90005CDE9024669464046FFF77B
:1011E0006BF8E802CDE90004694648460294FFF72F
:1011F00063F82803CDE90005CDE902466946484673
:10120000FFF75AF805B0BDE8F08300000010024077
:101210000010014000080140000C014010B586B0EC
:1012200000241748009401940294039404941349F1
:10123000059401604721C0E901144FF6FE71C0E931
:10124000031444618461FFF785FC08B172B6FEE7C0
:101250004FF48050009069460948FFF7FFFC08B141
:1012600072B6FEE7049404A905480594FFF73EFC16
:10127000002801D072B6FEE706B010BD002C014078
:101280004000002010B58EB0002407940894099403
:101290000A940B941C2168460C94FEF795FF1F4896
:1012A0001D4901604F21C0E9011440F2E731C0E956
:1012B00003148461FFF74EFC08B172B6FEE74FF4E9
:1012C0008050079007A91548FFF7C8FC08B172B60F
:1012D000FEE71248FFF7D7FD08B172B6FEE70B94A0
:1012E0000BA90E480C94FFF701FC08B172B6FEE79B
:1012F000602000904FF4FA70CDE9010400226946A5
:1013000006480494FFF75CFD08B172B6FEE7034897
:10131000FFF710FD0EB010BD000400408800002053
:1013200010B58EB000240794089409940A940B9485
:101330001C2168460C94FEF747FF1E481C490160BB
:101340004F21C0E9011440F2E731C0E90314846180
:10135000FFF700FC08B172B6FEE74FF4805007902B
:1013600007A91448FFF77AFC08B172B6FEE71148E6
:10137000FFF789FD08B172B6FEE70B940BA90D4883
:101380000C94FFF7B3FB08B172B6FEE76020CDE91D
:10139000000402940022694606480494FFF710FDF9
:1013A00008B172B6FEE70348FFF7C4FC0EB010BDEB
:1013B00000080040D0000020FEE7FEE77047000074
:1013C0002DE9FE4FFB4D012211462846FFF769F833
:1013D000F94F8021384600F00EFB4021384600F0DE
:1013E0000AFB2021384600F006FB1021384600F0A9
:1013F00002FB0821384600F0FEFA0421384600F0CE
:10140000FAFA0221384600F0F6FA0121384600F0D7
:10141000F2FA012280213846FFF743F801224021E9
:101420003846FFF73EF8012220213846FFF739F809
:10143000012210213846FFF734F8012208213846EE
:10144000FFF72FF8012204213846FFF72AF801227E
:1014500002213846FFF725F8012211463846FFF7EA
:1014600020F80C2000F090FC8021384600F0B7FAFC
:101470004021384600F0B3FA2021384600F0AFFA98
:101480001021384600F0ABFA0821384600F0A7FAE0
:101490000421384600F0A3FA0221384600F09FFAF2
:1014A0000121384600F09BFA41F2707000F06CFCAC
:1014B000C24C0026802138462660FEF7EDFF18B1A9
:1014C000206840F00100206040213846FEF7E4FF2C
:1014D00018B1206840F01000206020213846FEF747
:1014E000DBFF18B1206840F480702060102138467E
:1014F000FEF7D2FF18B1206840F480502060082128
:101500003846FEF7C9FF18B1206840F480302060EB
:1015100004213846FEF7C0FF18B1206840F480105F
:10152000206002213846FEF7B7FF18B1206840F06E
:101530008070206001213846FEF7AEFF0028206849
:1015400002D040F0805020604FF4805A4FF0FF39B5
:1015500080B3B0F5883F31D00121504530D0B0F58F
:10156000885F2DD0B0F5807F22D0B0F5887F1FD066
:10157000A0F58852103A1BD0102823D0112821D072
:10158000A0F58072113A1DD001281DD0B0F5803F22
:101590001CD0B0F5881F19D0B0F5801F05D0B0F170
:1015A000887F02D0864A904213D16FF001003BE061
:1015B000022039E0FFE76660A6604DE066604BE020
:1015C000616049E003202FE004202DE0C4F804907E
:1015D00042E0B0F1807F05D0B0F1885F02D0794A57
:1015E000904202D16FF002001EE0B0F1805F19D08E
:1015F000A0F58832113A11D0734A90420ED0A0F56E
:101600008052113A0AD0A0F58852113A06D0A0F5BE
:101610008032113A02D06D4A904207D10520C4E9C8
:10162000010119E06FF00300606015E0684988422D
:101630000ED0684988420BD06749884208D0674974
:10164000884205D00901884202D06549884203D109
:101650006FF00400C4E901096068029000F0BCFC6E
:1016600020620746616A00F02FFC606280463846BF
:10167000E16800F09FFD0146A062E06900F0C4FC53
:1016800001904146A06900F0BFFC8346394660697D
:1016900000F0BAFC5946009000F016FC019900F0E9
:1016A00013FCC4F82C80C4E903700298DFF834B14D
:1016B0004D4F002819DD5946009800F005FC00F058
:1016C0006BFC80B200F0CCFB216A606900F09CFCEE
:1016D000494600F016FE594600F062FD00F05CFC41
:1016E00080B200F0D7FB012222E020DA59460098B0
:1016F00000F056FD00F050FC80B200F0B1FB216A12
:10170000606900F081FC494600F0FBFD594600F09D
:10171000DBFB00F041FC80B200F0BCFB0122910336
:101720003846FEF7BEFE00224FF4005108E00022CA
:101730004FF400513846FEF7B4FE00224FF48041CA
:101740003846FEF7AEFEA1682848294F4A1C4FF4E0
:1017500000484FD001297BD02168C20891426BD14B
:10176000216A606900F050FC594600F0ADFB00F0C2
:1017700013FC80B200F074FB216A606900F044FC45
:10178000594600F0A1FB00F007FC80B200F082FB9C
:10179000002251462846FEF784FE012251032846C6
:1017A000FEF77FFE012291032846FEF77AFE002213
:1017B0000BE10000000C0140000801400000002087
:1017C00000001101000010111111010011010100B0
:1017D0000010011100101111001000110010101163
:1017E0000000111100005C430010014000008080E7
:1017F0000000204121698142216A606903D300F021
:1018000003FC754F5AE000F0FFFB394600F0FCFB8B
:10181000594600F059FB00F0BFFB80B200F020FBFE
:10182000216A606900F0F0FB394600F0EDFB594693
:1018300000F0B6FC28E00BE06BE041462846FEF7DE
:1018400030FE6420C4F80860FEF724FDBDE8FE8F7A
:1018500021698142216A60692ED300F0D5FB3946A7
:1018600000F0D2FB594600F09BFC00F095FB80B2E3
:1018700000F0F6FA216A606900F0C6FB394600F014
:10188000C3FB594600F020FB00F086FB80B200F05D
:1018900001FB012251462846FEF703FE00224FF4C9
:1018A00000512846FEF7FDFD00224FF480412846F6
:1018B000FEF7F7FD0122C0E700F0A6FB394600F075
:1018C000A3FB594600F000FB00F066FB80B200F07D
:1018D000C7FA216A606900F097FB394600F094FB73
:1018E000594600F05DFC00F057FB80B200F0D2FAE0
:1018F000002251462846FEF7D4FD01225103284616
:10190000FEF7CFFD012291032846FEF7CAFD002213
:1019100093E7A1F58072013A2DD0216A606900F049
:1019200073FB594600F0D0FA00F036FB80B200F0AD
:1019300097FA216A606900F067FB594600F0C4FA23
:1019400000F02AFB80B200F0A5FA0022514628469A
:10195000FEF7A7FD012251032846FEF7A2FD002253
:101960004FF480412846FEF79CFD0122414628465F
:10197000FEF797FD6AE7216A606900F045FB59466A
:1019800000F0A2FA00F008FB80B200F069FA216AC8
:10199000606900F039FB594600F096FA00F0FCFA55
:1019A00080B200F077FA012251462846FEF779FD11
:1019B00000224FF400512846FEF773FD00224FF439
:1019C00080412846FEF76DFD012241462846FEF77C
:1019D00068FD192038E700000000A04070471FB5DF
:1019E0000022CDE9001201210291022103916946F2
:1019F000FEF762FC1FBD1FB5002200910121CDE959
:101A00000112022103916946FEF756FC1FBDFEF745
:101A100053BD30B58FB028216846FEF7D5FB1421A1
:101A20000AA8FEF7D1FB01210804CDE9001000242B
:101A3000029402250491CDE907504FF4E01009907B
:101A40006846FEF7AFFE08B172B6FEE70F20CDE99B
:101A50000A054FF48060CDE90C4002210AA80E94DB
:101A6000FEF7B4FD002801D072B6FEE70FB030BD1E
:101A700070470000F0B50268164B174C174D4FF039
:101A80008047984205D0B84203D0A04201D0A84276
:101A900003D122F070064A683243984205D0B8421A
:101AA00003D0A04201D0A84203D122F44074CA68F6
:101AB00022434C6922F08002224302608A68C2629B
:101AC0000A688262984201D109690163012141617A
:101AD000F0BD0000002C0140000400400008004060
:101AE00010B501F01F030121046A99408C43046280
:101AF000016A9A401143016210BD10B5846842EA40
:101B0000032224F47F440A432243826010BD82688A
:101B100022F070020A4342F0070181607047000022
:101B200030B5026A22F001020262026A43688469E7
:101B300024F073050C682C4322F002058A682A43BE
:101B40000A4DA8420BD122F00805CA6823F440735D
:101B50002A434D6922F004021D438B692B434360E5
:101B6000846149684163026230BD0000002C01407D
:101B700030B5026A22F010020262026A4368846988
:101B80000D6824F4E64444EA05248D6822F020021E
:101B900042EA05120B4DA8420ED1CD6822F0800218
:101BA00042EA05124D6923F4406343EA85038D69D7
:101BB00022F0400243EA85034360846149688163FF
:101BC000026230BD002C014030B5026A22F48072FE
:101BD0000262036A4268C46923F4007324F0730547
:101BE0000C682C438D6843EA05230C4DA8420ED1A6
:101BF000CD6823F4006343EA05234D6922F4405283
:101C000042EA05128D6923F4806342EA05124260BC
:101C1000C4614968C163036230BD0000002C01400B
:101C200030B5026A22F480520262046A4268C369D3
:101C30000D6823F4E64343EA05238D6824F4005439
:101C400044EA0534064DA84204D14D6922F480428D
:101C500042EA85124260C36149680164046230BD92
:101C6000002C014010B5036A046A24F001040462E8
:101C7000846924F0F00444EA021423F00A020A43BF
:101C80008461026210BD10B5036A23F01003036281
:101C90008369046A23F4704343EA023224F0A00308
:101CA00043EA01118261016210BD000070B5044673
:101CB00000680169E26821F4405111430161216922
:101CC000A0680843616908432168CA6841F20C634F
:101CD0009A430243CA6020684169A26921F44071B5
:101CE000114341611E492068884202D1FEF714FD6C
:101CF00001E0FEF701FD00EBC00101EB001260689E
:101D000064218000B2FBF0F3B3FBF1F36FF018062F
:101D10007343B2FBF0F5B2FBF0F605EB830532231B
:101D200003EB0515B5FBF1F5B6FBF1F605F0F00593
:101D300005EB0615B2FBF0F6B2FBF0F0B0FBF1F0EC
:101D40006FF01802504306EB800003EB0010B0FB6D
:101D5000F1F0216800F00F002844886070BD000099
:101D600000380140FEE70907090E002804DB00F1F6
:101D7000E02080F80014704700F00F0000F1E02030
:101D800080F8141D70470000044900220B685A6255
:101D900009684A6A8242FCD3704700004000002074
:101DA000FEF792FBFFF735FEFFF7B4F9FFF736FABF
:101DB000FFF768FAFFF7B4FA2748264900240160C4
:101DC0004FF41651C0E901140C25C460C0E9044564
:101DD0008461C461FFF70CF908B172B6FEE71E48D2
:101DE0001E49443001604FF4E131C0E90114C46080
:101DF000C0E904458461C461FFF7FAF808B172B61E
:101E0000FEE71548D838FEF701FF13480021903847
:101E1000FFF768F8104800214838FFF763F80E48CC
:101E200004219038FFF75EF80B4804214838FFF78B
:101E300059F80949642090390A6850630968886331
:101E40000548483801684C6300688463FFF7B8FAB6
:101E5000FCE7000000380140180100200048004065
:101E600010B5044688B000210948FFF789F86020C2
:101E7000CDE900040020029002460490694604481F
:101E8000FEF79EFF00210248FFF72CF808B010BDB6
:101E90008800002010B5044688B000210948FFF7EB
:101EA0006FF86020CDE90004002002900246049003
:101EB00069460448FEF784FF00210248FFF712F844
:101EC00008B010BDD000002090EA010F48BF81F09B
:101ED000004100F17681421A3CBF801A89184FEA0E
:101EE000D0524FF07F4C1CEA410FA2EBD15318BFE8
:101EF0009CEA026F00F03B804FF0004C4CEA00205F
:101F00004CEA012121FA03FC10EB0C0C1ED202F169
:101F1000FF325FEA1C2040EBC25038BF70471CF014
:101F20007F0F4FEA400C18BFBCF17F4F38BF70479E
:101F3000C3F12003994008BF20F00100BCF17F4F9E
:101F400038BF7047A0F1C04000F025B94FEA3C000F
:101F5000000A40EBC25028BF1CF0FF0F4FEA400CB4
:101F6000E6D018BFBCF17F4F38BF7047EAE79CEA64
:101F7000026F05D010EA5C0F08BF00F00040704708
:101F800010B500F0C2F800BF64FBBE3E014800F08F
:101F900086B900BF0000C07FC10DD1F19E0206DBF3
:101FA0004FEA002343F0004323FA02F07047004257
:101FB00007D54FEA4001B1F1FE4F02D24FF00000C9
:101FC000704710B500F0A1F84992248000207047B6
:101FD0006FEA20007047000010F0004148BF404207
:101FE000B0FA80F310FA03F2C3F19D030BD051EA6B
:101FF000C35101EB1220530638BF704700F10100B6
:1020000008BF20F0010070474FF47F0C1CEAD0128B
:102010001EBF1CEAD11392EA0C0F93EA0C0F00F0DA
:10202000478090EA010F48BF42F480724FF0004CA5
:102030004CEA00204CEA012102EB0302A0FB011351
:10204000A2F50002002918BF43F001035B0028BF7E
:102050004FEA330342EB22425FEA132C4CEBC250AF
:102060002EBFBCEB436FB2F57C0F70474FEA036C99
:10207000BCF1004F08BF20F00100B2F57C0F38BF63
:1020800070470BD582F0FF0212F5803FC8BF704742
:1020900000F1C040D8BF00F00040704700F5000CD0
:1020A0005FEA4C0C48BF7047B0F1C04000F073B815
:1020B00090EA010F0CEAD11348BF42F480726245E6
:1020C00038BF634504D280EA010000F00040704749
:1020D00010B500F01AF800BF8900013E00F007B803
:1020E00000F009B85FEA410C5FEA1C6C08D080EA96
:1020F000010000F050B85FEA400C5FEA1C6CF6D1BA
:102100004FF00040A0F5800070470EF1020E2EF057
:10211000030E5EF8044B244204D44FEA4102B2F1AC
:102120007F4F11D84FEA4003B3F17F4F0CD80ED147
:102130004FEAD07CB2F17F4F0CEB4C0C0CF1020C4F
:1021400008BF4CEBD17C04E04FF0080C01E04FEAF3
:10215000D17C0CEB4C0324FA03F404F00704B4F133
:10216000040C06D20EEB840CBDE810404CF0010CC0
:102170006047DFE80CF0070802024FF00040A0F5CE
:10218000800010BD0846420018BFD2F1807288BF9F
:1021900000F0004010BDFF2141EAD050C00570475B
:1021A00080F0004090EA010F7FF595AE81F000418C
:1021B00000F007B890EA010F48BF81F000413FF5F9
:1021C0008AAE421A04D882F00042A0EB0200114409
:1021D0004FEAD0524FF07F4C1CEA410FA2EBD15393
:1021E00018BF9CEA026F4AD04FF0004C4CEA002026
:1021F0004CEA012121FA03FCB0EB0C0C0FD412F0D5
:10220000FE0F36D05FEA4C001DD5001240EBC250E5
:1022100038BF70471CF03F0F18BF70470BE0A2F1AA
:1022200001025FEA1C2040EBC25038BF70471CF02F
:102230007F0F18BF7047C3F12003994014BF401EA1
:1022400020F00100704780084FEA122308BF704752
:10225000B0FA80FCA2EB0C02CCF1280C60FA0CF076
:1022600093EA122F04BF00EBC25070474FEAC370CD
:102270007047130A5FEADC1008BF7047F6E79CEA74
:10228000026F04D010EA5C0F08BF0020704710B541
:10229000FFF73BFF40DFF63E81F0004070470CF057
:1022A0000F03092B08BF082000F051800A2B0BD028
:1022B000082B18BF704708BF1CF0400F0AD04FF022
:1022C00000004FF0000170471CF0400F18BF4FF0A6
:1022D000004070471CF0100F08D020F0704300F051
:1022E0007F4242EAD3014FEA4370704700F06040FA
:1022F00021F07F4242EA000201F07F4040EA727022
:1023000070474FF0FF0212EAD0521CBF92F0FF0359
:102310008B42C2BFD14200EBC1507047002A0AD0A5
:10232000002B0BD0002900F00040A4BF40F0FE407D
:1023300040F40000704700F00040704743024FF047
:102340000B0C18BF4CF0806C7FF420AE70471CF46F
:10235000801F11D01CF4E02F03D06FEACC3149006C
:1023600070474FF04050EFF3008222F0704242EA93
:10237000000282F3008870474FF0000070470000B1
:102380000000000000000102030406070809000025
:102390000000010203040000B82300080000002030
:1023A0004000000028010008F82300084000002039
:1023B000C007000044010008000000000000000009
:1023C0000000000000000000000000000000F841D4
:1023D0000000000000806D440000000000000000CC
:1023E00000000000000000000100000010000000DC
:0823F000000000000024F400CD
:04000005080000ED02
:00000001FF
